:020000040800F2
:10000000481300200101000831520008713D00082A
:100010008D4B0008A92800086F6800080000000048
:10002000000000000000000000000000155D000856
:100030006D2A0008000000003D550008015E000820
:100040001B0100081B0100081B0100081B01000820
:100050001B0100081B0100081B0100081B01000810
:100060001B0100081B0100081B0100081B01000800
:100070001B0100081B0100081B0100081B010008F0
:100080001B0100081B0100081B0100081B010008E0
:100090001B0100081B0100081B0100081B010008D0
:1000A0001B0100081B0100081B0100081B010008C0
:1000B0001B0100081B0100081B0100081B010008B0
:1000C0001B0100081B0100081B0100081B010008A0
:1000D0001B010008E96400081B0100083D660008D8
:1000E0001B0100081B0100081B010008DFF80CD0F1
:1000F00000F04EFC004800479178000848130020AB
:100100000648804706480047FEE7FEE7FEE7FEE7B1
:10011000FEE7FEE7FEE7FEE7FEE7FEE7515E0008CA
:10012000ED00000840EA01039B0703D009E008C97D
:10013000121F08C0042AFAD203E011F8013B00F8AC
:10014000013B521EF9D27047D2B201E000F8012BF8
:10015000491EFBD270470022F6E710B513460A4647
:1001600004461946FFF7F0FF204610BDF0B480EAC0
:100170000102D40F4200B2EB410F02D20246084600
:1001800011464A0042D0C30DDDB2C1F3C752AD1AC9
:10019000202D35DAC1F3160141F4000204B15242B8
:1001A000C5F1200602FA06F12A411044B3EBD05FF4
:1001B00023D0C4B1012DA0EBC35009DCF0BC4FF03B
:1001C000004202EAC352DBB200F5000000F0C2BAFE
:1001D000400000F1807000EBC350A0F1807040EA55
:1001E000D170490009E0490841EAC071A0EBC35051
:1001F00000F50000400800EBC350F0BC00F0A1BACD
:100200006142012202EB4101001BF6E7F0BC70479E
:1002100081F00041AAE780F00040A7E780EA0102F0
:1002200010B502F00043400022D04A001FD0010E5A
:1002300001EB1261C0F35600C2F3560240F4000015
:1002400042F40002A0FB022000047F39140400D015
:10025000401C50EA124001D44000491EC2B20C06B4
:1002600004EBD010401C4008802A02D003E000209C
:1002700010BD20F00100002900DA0020184310BD55
:1002800030B480EA010202F0004530F0004221F073
:10029000004013D090B1C30DD40DC2F31601C0F3CA
:1002A0001600E41A41F4000140F400027D3491424A
:1002B00001D3641C00E04900002C02DA30BC0020AD
:1002C00070474FF400000023914201D3891A034381
:1002D00040084FEA4101F7D151B1914202D14FF0AC
:1002E000004105E002D24FF0010101E06FF0010191
:1002F00003EBC450284430BC00F023BA2DE9FE4F74
:10030000804681EA0300C00F0C46009021F00041B6
:1003100023F00045B8EB0200A94105D24046214632
:1003200090461C460B46024623F00040104347D03F
:10033000270DC7F30A00C3F30A510290401A019037
:1003400040286BDAC3F3130040F4801B00989246F8
:1003500020B10023D2EB030A63EB0B0B0198594643
:10036000C0F14002504600F0BBF906460D4650462B
:100370005946019A00F0D3F910EB080061410024BE
:1003800087EA115284EAE7731A4340D0009A62B3B5
:10039000019A012A4FEA075215DC001B61EB0201AA
:1003A0004FF0004202EA0752CDE90042001C41F53D
:1003B000801132462B4600F016FA03B0BDE8F08FEC
:1003C00040462146F9E7001B61EB0201001C41F5A4
:1003D000801300185B412018A2F5001747EB0301BA
:1003E00040EAD570B6196D4111E06D084FEA360646
:1003F00045EAC0754FEA0752001B61EB0201001C81
:1004000041F5801149084FEA300000195141324648
:100410002B4603B0BDE8F04F00F0D6B9009801229A
:1004200040000023D0EB020263EBE073009821460A
:100430004FEAE074B8EB000061EB0401E9E783F0F8
:1004400000435BE781F0004158E72DE9FE4F81EA68
:10045000030404F0004421F0004100944FF0000B2D
:1004600023F0004350EA01045ED052EA03045BD05B
:10047000C3F30A54C1F30A552C44A4F2F334019493
:10048000A0FB0254C1F3130141F48011C3F3130321
:1004900043F4801301FB024400FB034E840A970AD5
:1004A00044EA815447EA8357A4FB076802958D0A02
:1004B00005FB07854FEA932C04FB0C542705029D8E
:1004C0004FEA065847EA1637B5EB08056EEB070CFE
:1004D000870E920E47EA811742EA8312A7FB0201B8
:1004E000B6EB0B0164EB00042B0D43EA0C335E18F2
:1004F00044EB1C50DA465146E7FB0201C5F31304F6
:100500004FEA0B3343EA14534FEA0432019C43EAA7
:100510000603A4F10C040294009CCDE900B400F0A1
:1005200062F903B0BDE8F08F00200146F9E7C10F82
:1005300080EAE0700844CA079623002100F00AB957
:1005400096230022114600F005B90EB5C10F80EACE
:10055000E0700844CA07002140F233438DE80E00E2
:100560000A460B4600F03FF903B000BD00F0004220
:1005700020F00040C10DC0F3160040F400007F29B8
:1005800001DA00207047962903DCC1F19601C840CA
:1005900001E096398840002AF4D04042704720F0AC
:1005A0000040C10DC0F3160040F400007F2901DABD
:1005B00000207047962903DCC1F19601C8407047BE
:1005C000963988407047C1F30A5210B5C1F3130140
:1005D00040F2FF3341F480119A4201DA002010BD4D
:1005E00040F233439A42A2F2334203DC524200F01B
:1005F00086F810BD904010BD00F0004230F0004081
:100600000AD0C10D01F56071C0F3160042EA015134
:10061000C2084007114370470020014670470000A0
:1006200030B5041E71F1000404DB4FF00044404279
:1006300064EB0101141E73F1000405DB1C464FF04E
:100640000043524263EB04038B4208BF824230BD39
:1006500030B5041E71F1000404DB4FF00044404249
:1006600064EB0101141E73F1000405DB1C464FF01E
:100670000043524263EB0403994208BF904230BDED
:1006800001F0004330B421F0004150EA010206D0ED
:100690000A0DA2F56072C1F31301002A02DC30BC1E
:1006A00000207047440F44EAC104C100E01830BC88
:1006B00000EBC25000F045B8002801DBC0F100405B
:1006C000002901DBC1F1004181427047002801DBB4
:1006D000C0F10040002901DBC1F1004188427047B0
:1006E000202A04DB203A00FA02F1002070479140F2
:1006F000C2F1200320FA03F3194390407047202AE7
:1007000004DB203A21FA02F00021704721FA02F3BB
:10071000D040C2F120029140084319467047202A78
:1007200006DBCB17203A41FA02F043EAE07306E019
:1007300041FA02F3D040C2F1200291400843194629
:1007400070470029A8BF7047401C490008BF20F02F
:100750000100704710B4B0FA80FC00FA0CF050EAC7
:10076000010404BF10BC704749B1CCF1200421FA48
:1007700004F411FA0CF118BF012121430843A3EB43
:100780000C01CB1D4FEA00614FEA102042BF002050
:1007900010BC704700EBC35010440029A4BF10BC2C
:1007A0007047401C490008BF20F0010010BC704792
:1007B000420005D0C0F3C7525242914201DC0020F2
:1007C000704700EBC150704710B5141E73F1000460
:1007D00008DA401C41F1000192185B411A4301D133
:1007E00020F0010010BD2DE9F04D92469B4611B15D
:1007F000B1FA81F202E0B0FA80F220329046FFF7BF
:100800006FFF04460F4640EA0A0041EA0B015346D7
:100810005A46084313D0114653EA010019D0C8F1D3
:1008200040025046FFF76BFF05460E4650465946BC
:100830004246FFF755FF084305D0012004E020465B
:100840003946BDE8F08D0020054346EAE0762C43AA
:1008500037430A986305E40AA0EB08000022FD0A6A
:1008600044EA47540A3002D500200146E9E7010571
:1008700010196941DDE9084500196941BDE8F04DED
:10088000A2E72DE9F04D81EA030404F0004B21F0CA
:10089000004514464FF0000A23F0004150EA0502DB
:1008A00020D054EA01021DD0C5F30A570246C5F311
:1008B0001303C1F31300C1F30A5640F4801543F447
:1008C0008013A7EB0608101BD64608F2FD3873EB21
:1008D000050002D308F1010801E092185B41B8F16C
:1008E000000F03DA00200146BDE8F08D00204FF430
:1008F0008011064684460EE0171B73EB050705D3EF
:10090000121B63EB050306434CEA010C49084FEA4E
:10091000300092185B4150EA0107EDD152EA030022
:1009200012D082EA040083EA0501084305D0101BB7
:10093000AB4106D20122002306E000224FF0004323
:1009400002E06FF0010253101AEB06004CEB085165
:1009500010EB0A0041EB0B01BDE8F04DFFF734BF8F
:1009600070B521F0004303430CD0C1F30A550024B5
:10097000D5EB040564EB0403D617AD1AB34102DBD3
:100980000020014670BD201841EB025170BD0000EF
:10099000064C074D06E0E06840F0010394E80700CC
:1009A00098471034AC42F6D3FFF7A4FB008500084B
:1009B000208500082DE9F04D00231A461B1A8A41B4
:1009C00003DB00200146BDE8F08DC1F30A52C1F3FC
:1009D000130141F480154FF0000BD10702D100182C
:1009E0006D41521E0027044640F2FF11384601EBCC
:1009F000620A3E468046024600204FF48011FFF70F
:100A00007EFEC2197141BB1846EB0100B4EB030C2A
:100A100075EB000C04D3E41A65EB000517460E468F
:100A2000241908F101006D4180463428E3DDF919ED
:100A300046EB0600091BA84103D24FF0FF321346D4
:100A400001E0002213461BEB070046EB0A51BDE80C
:100A5000F04DFFF7B9BE0EB540F2334102910021CF
:100A6000CDE900110A460B46FFF7BDFE03B000BDFD
:100A700070B5C1F30A5201F000450024C1F313011F
:100A800040F2FF3341F480119A4201DA002070BD38
:100A900040F233439A42A2F2334203DC5242FFF760
:100AA0002EFE00E090402C43F1D0404270BD70B566
:100AB0008C1810F8015B15F0070301D110F8013B09
:100AC0002A1106D110F8012B03E010F8016B01F890
:100AD000016B5B1EF9D12B0705D40023521E0DD4E8
:100AE00001F8013BFAE710F8013BCB1A921C03E036
:100AF00013F8015B01F8015B521EF9D5A142D8D36E
:100B0000002070BD08B50121084604F04BFF01210B
:100B10004FF4027004F066FF0120ADF800000020E1
:100B20008DF803006946024802F064FC08BD00002D
:100B3000000C014010B5FFF7E5FF00F001F810BD13
:100B400000B591B0334801F0CDFE334806903348EC
:100B50000790002008900220099000200A90802031
:100B60000B9040000C9080000D9020200E90000211
:100B70000F900020109006A9264801F059FF01218E
:100B8000244801F0A2FE0020019001208DF8080009
:100B90008DF809004FF4602003900020049001209C
:100BA0008DF8140001A91C484C3800F063F84FF48C
:100BB000004004F0EBFE05230122082116484C38C2
:100BC00000F080F8012114484C3800F034F801217D
:100BD00011484C3800F024F80F484C3800F0CEF89B
:100BE00000BF0D484C3800F03BF80028F9D10A4806
:100BF0004C3800F0D3F800BF07484C3800F026F816
:100C00000028F9D1012104484C3800F0BCF811B09B
:100C100000BD0000080002404C24014058000020A4
:100C200021B1826842F00102826003E0826822F012
:100C300001028260704721B1826842F48072826052
:100C400003E0826822F480728260704701460020CF
:100C50008A6802F004020AB1012000E00020704717
:100C6000014600208A6802F008020AB1012000E073
:100C70000020704730B502460020002350680F4C1A
:100C800020400D790C6844EA0524204350609068A8
:100C90000B4C2040D1E902542C434D7944EA4504E1
:100CA00020439060D06A20F470000C7C641EE4B293
:100CB000234340EA0350D06230BD0000FFFEF0FF46
:100CC000FDF7F1FFF0B504460D4600200021092D87
:100CD00011DDE068A5F10A0606EB4607072606FACD
:100CE00007F18843A5F10A0606EB460603FA06F16A
:100CF0000843E0600CE0206905EB4507072606FA8B
:100D000007F1884305EB450603FA06F10843206125
:100D1000072A0FDA606B561E06EB86071F2606FAB7
:100D200007F18843561E06EB860605FA06F10843CE
:100D3000606322E00D2A0FDA206BD61F06EB8607D0
:100D40001F2606FA07F18843D61F06EB860605FA2A
:100D500006F10843206310E0E06AA2F10D0606EBFD
:100D600086071F2606FA07F18843A2F10D0606EB57
:100D7000860605FA06F10843E062F0BD816841F09D
:100D800008018160704721B1826842F4A00282604C
:100D900003E0826822F4A00282607047816841F01B
:100DA000040181607047000010B503F05DFD06F09E
:100DB0004FFE03F093FE04F0E7F9FFF7BBFE4FF49C
:100DC000964001F0C9F94FF4E13005F029FB1648CF
:100DD00005F0CEFB04F00EFB07F080F9012818DBCC
:100DE00015E04FF07E512046FFF7C0F904464FF45E
:100DF00000700E4908600E492046FFF767FC06D8D0
:100E000000200C49087001200B49087000E0E8E759
:100E100005E001200749087000200749087005F027
:100E200047F805F0B5F810BD20A10700100C0140EF
:100E30000050C347300000208200002000B58FB072
:100E4000FE48007838B10020FC4908700721FC48B2
:100E500000F0AEFCE0E2FB48807900287DD0FA4843
:100E60000078401CF849087008460078012806D030
:100E700002287ED0032872D0042871D163E1F348A0
:100E80008069F3490490FFF7C9F90590FFF76EFBFD
:100E900000B20E90ED484069ED490490FFF7BEF9AD
:100EA0000590FFF763FB00B20D90E8480069E84940
:100EB0000490FFF7B3F90590FFF758FB00B20C90D0
:100EC000E4488069E2490490FFF7A8F90590FFF72C
:100ED0004DFB00B20B90DF484069DD490490FFF7FD
:100EE0009DF90590FFF742FB00B20A90D9480069CE
:100EF000D7490490FFF792F90590FFF737FB00B24E
:100F00000990D5488069D2490490FFF787F9059088
:100F1000FFF72CFB00B20890CF484069CC49049001
:100F2000FFF77CF90590FFF721FB00B20790CA4854
:100F30000069C7490490FFF771F90590FFF716FBA8
:100F400000B20690DDE90B23DDE90D10CDE90223A7
:100F5000CDE90410DDE9090103E091E109E07DE05C
:100F60006BE1CDE90001012006A90EC900F028FCC3
:100F700063E1BA488069B6490490FFF74FF90590DC
:100F8000FFF7F4FA00B20E90B4484069B0490490FB
:100F9000FFF744F90590FFF7E9FA00B20D90AF486A
:100FA0000069AB490490FFF739F90590FFF7DEFAC5
:100FB00000B20C90AA488069A5490490FFF72EF969
:100FC0000590FFF7D3FA00B20B90A5484069A049FD
:100FD0000490FFF723F90590FFF7C8FA00B20A90D2
:100FE0009F4800699A490490FFF718F90590FFF7A8
:100FF000BDFA00B209909B48806995490490FFF7BB
:101000000DF90590FFF7B2FA00B2089095484069D3
:101010008F490490FFF702F90590FFF7A7FA00B295
:101020000790904800698A490490FFF7F7F8059007
:10103000FFF79CFA00B20690DDE90B23DDE90D1005
:10104000CDE90223CDE90410DDE90901CDE9000174
:10105000022006A90EC900F0B3FBEEE082488069C9
:101060007B490490FFF7DAF80590FFF77FFA00B2AA
:101070000E907D48406976490490FFF7CFF80590BF
:10108000FFF774FA00B20D90774800697049049038
:10109000FFF7C4F80590FFF769FA00B20C907348A7
:1010A00080696B490490FFF7B9F80590FFF75EFA85
:1010B00000B20B906D48406965490490FFF7AEF8A7
:1010C0000590FFF753FA00B20A906848006960493A
:1010D0000490FFF7A3F80590FFF748FA00B20990D3
:1010E000634880695A490490FFF798F80590FFF724
:1010F0003DFA00B208905E48406955490490FFF7F8
:101100008DF80590FFF732FA00B207905848006951
:101110004F490490FFF782F80590FFF727FA00B2D5
:101120000690DDE90B23DDE90D10CDE90223CDE9C1
:101130000410DDE90901CDE90001032006A90EC96B
:1011400000F03EFB79E04B48806941490490FFF78D
:1011500065F80590FFF70AFA00B20E90454840691D
:101160003B490490FFF75AF80590FFF7FFF900B2EA
:101170000D904048006936490490FFF74FF80590FC
:10118000FFF7F4F900B20C903B48806930490490B5
:10119000FFF744F80590FFF7E9F900B20B903648E5
:1011A00040692B490490FFF739F80590FFF7DEF905
:1011B00000B20A903048006925490490FFF72EF8E4
:1011C0000590FFF7D3F900B209902C4880692049B7
:1011D0000490FFF723F80590FFF7C8F900B20890D4
:1011E000264840691A490490FFF718F80590FFF760
:1011F000BDF900B207902148006915490490FFF736
:101200000DF80590FFF7B2F900B20690DDE90B2367
:10121000DDE90D10CDE90223CDE90410DDE9090176
:10122000CDE90001042006A90EC900F0C9FA00208A
:10123000054908700349887100BFEDE052020020A3
:101240000A0F0020FC0E0020500200205404002051
:1012500000007A44D403002054030020D405002069
:10126000D40400205405002054080020D406002097
:1012700054060020D4070020D40800205407002082
:101280006648807818B1002064498870C4E06448DA
:101290000078401C6249087008460078072824D26C
:1012A000DFE800F0B904245679929C005D48C069DB
:1012B0000B90FFF75BF90E905B48806880F0004070
:1012C0000D905948006880F000400C905748007815
:1012D00056494968C9B2CDE90010534840680B909F
:1012E00001460CA80DC800F077FD94E04D48406918
:1012F0000C90FFF73BF900B20E904A4800690C9041
:10130000FFF734F900B20D904648027E484BB3F91E
:101310000A30DDE90D10CDE90131CDE90302444881
:10132000B0F9080000904248B0F906000C9040481F
:10133000B0F904000B903E48B0F902000A903C4816
:10134000B0F9000009900AA90EC900F027FC62E07C
:101350003848408A38490B783649C989354A9289D4
:10136000CDE9031302920590324840893149098939
:10137000CDE900102F4840880E902E4800880D902F
:101380002C48C0880C902B4880880B900CA90EC963
:1013900000F052FB3FE02948B0F900000A2190FB21
:1013A000F1F080B20E902648008826490988CDE9E0
:1013B00000102048008A0D901F4803780122DDE9C3
:1013C0000D1000F0BFFA26E01F4840680D90FFF7AF
:1013D000CDF800210E9000F0AFFC1CE01A484068E8
:1013E0000B90FFF7DCF880B20E901848C06C0B90A1
:1013F000FFF7D5F880B20D901448806C0B90FFF782
:10140000CEF880B20C90DDE90D1200F089FD0020CD
:101410000349087000BF00BF0FB000BDFC0E0020E4
:1014200050020020680C0020140300203803002024
:101430000803002020030020830000205C0000201F
:10144000B6010020B4010020440300208C0C0020D1
:101450002DE9F04104460D460026002700BF04E0B8
:10146000E05D3044C6B2781CC7B2681EB842F7DCF3
:10147000601910F8010CB04201D0BDE8F08120786D
:10148000AA2802D16078AF2800D0F6E7A07801281A
:1014900000D1C2E0A07802281BD1207901280CD10C
:1014A0005F48007820F0400040305D49087001201E
:1014B0005C49887100205C4908702079A02802D11D
:1014C0000120584988702079A128E2D106F0C0FA9D
:1014D000A3E0A07803283FD1012054494870207927
:1014E000617941EA002052498880A079E17941EA96
:1014F00000204F49C880207A617A41EA00204C4997
:101500000880A07AE17A41EA002049494880207B9E
:10151000617B41EA002046490881A07BE17B41EAEA
:10152000002043494881207C617C41EA00204049F9
:101530008881A07CE17C41EA00203D49C881207D72
:10154000617D41EA00203A490882A07DE17D41EABF
:1015500000203749488260E0A078102810D112227C
:10156000211D3448FEF7DEFD2D48007820F00100F3
:10157000401C2B490870A078314600F0D7F84CE0A9
:10158000A078112810D11222211D2B48FEF7CAFD88
:101590002348007820F00200801C21490870A078C0
:1015A000314600F0C3F838E0A078122810D112229A
:1015B000211D2248FEF7B6FD1948007820F00400EE
:1015C000001D17490870A078314600F0AFF824E0FC
:1015D000A078132810D11222211D1948FEF7A2FD70
:1015E0000F48007820F0080008300D490870A078F6
:1015F000314600F09BF810E0A078142804D1A078C0
:10160000314600F093F808E0A078152804D1A078BE
:10161000314600F08BF800E000BF00BF2DE700006E
:10162000A2010020FC0E0020500200209C0100209E
:1016300020030020540D0020660D0020780D0020AE
:101640008A0D002010B504463448007838B9AA2C19
:1016500005D1012031490870314804705DE02F4800
:101660000078012807D1AF2C05D102202B49087042
:101670002B48447051E029480078022807D1F12C0A
:1016800005DA0320254908702548847045E0234881
:10169000007803280CD1322C0ADA04201F49087084
:1016A0001F48C4701F48047000201F49087034E0B0
:1016B0001A480078042819D11A480078002815DD46
:1016C00018480078401E17490870174800781649D6
:1016D0000978491C144A1170001D11490C54114815
:1016E0000078D0B905200D49087016E00B48007845
:1016F00005280FD10020094908700B480078001D0B
:1017000007490C5408480078401DC1B20448FFF74F
:101710009FFE02E000200149087010BDAF010020CB
:101720009C0E0020AD010020AE0100202DE9F0410B
:1017300005460F4600260024AA201A4908701A49B7
:1017400008701849487018494870EF20154988708A
:101750001549887002201349C8701349C87068B2CF
:10176000104908711049087178B20E4948710E4944
:10177000487100BF05E00B48005D3044C6B2601CF4
:10178000C4B2062CF7DB70B206498871064988712D
:101790000120064908700721024804F08BFFBDE8CC
:1017A000F0810000A30100200A0F00205202002057
:1017B00070B504460D462946204600F0B9FC70BDC0
:1017C0002DE9F84F06460F4690469946DDF828B0B9
:1017D0000024A246AA222146641C594842542146AC
:1017E000641C425406F10F00C2B22146641C5448E6
:1017F000425400222146641C425400979DF8012067
:101800002146641C42549DF800202146641C425429
:10181000CDF800809DF801202146641C42549DF8BB
:1018200000202046611CCCB245490A54CDF80090F6
:101830009DF801202046611CCCB241490A549DF814
:1018400000202046611CCCB23D490A54CDF800B0BE
:101850009DF801202046611CCCB239490A549DF8FC
:1018600000202046611CCCB235490A540B980090E8
:101870009DF801202046611CCCB231490A549DF8E4
:1018800000202046611CCCB22D490A540C980090CF
:101890009DF801202046611CCCB229490A549DF8CC
:1018A00000202046611CCCB225490A540D980090B6
:1018B0009DF801202046611CCCB221490A549DF8B4
:1018C00000202046611CCCB21D490A540E9800909D
:1018D0009DF801202046611CCCB219490A549DF89C
:1018E00000202046611CCCB215490A540F98009084
:1018F0009DF801202146601CC4B2114842549DF855
:1019000000202046611CCCB20D490A54201FC8702B
:10191000002506E00A48405D504400F0FF0A681CBC
:10192000C5B2A542F6DB2046611CCCB2044901F8E1
:1019300000A021460248FFF73BFFBDE8F88F0000FA
:101940000A0F00202DE9F84F06460F4690469946AB
:10195000DDF828B00024A246AA222146641C35489E
:1019600042542146641C425405222146641C4254C0
:1019700000222146641C425400969DF80120214615
:10198000641C42549DF800202146641C4254009778
:101990009DF801202146641C42549DF800202046F9
:1019A000611CCCB223490A542046611CCCB22149A7
:1019B00001F800802046611CCCB21E4901F800905D
:1019C000CDF800B09DF801202046611CCCB2194929
:1019D0000A549DF800202046611CCCB215490A54D7
:1019E0000B9800909DF801202046611CCCB2114953
:1019F0000A549DF800202046611CCCB20D490A54BF
:101A0000201FC870002506E00A48405D504400F0E1
:101A1000FF0A681CC5B2A542F6DB2046611CCCB2A9
:101A2000044901F800A021460248FFF7C1FEBDE8C5
:101A3000F88F00000A0F00207FB500240026AA229C
:101A40002146641C544842542146641C42540322DB
:101A50002146641C425400222146641C42549DF8D5
:101A600001202146641C42549DF800202146641C3C
:101A700042549DF805202146641C42549DF80420E0
:101A80002046611CCCB244490A549DF809202146E5
:101A9000601CC4B2404842549DF808202046611C96
:101AA000CCB23D490A549DF80D202046611CCCB2B1
:101AB00039490A549DF80C202046611CCCB23649A5
:101AC0000A549DF821202046611CCCB232490A54A8
:101AD0009DF820202046611CCCB22F490A549DF865
:101AE00025202146601CC4B22B4842549DF8242076
:101AF0002046611CCCB228490A549DF82920204672
:101B0000611CCCB224490A549DF828202146601C4F
:101B1000C4B2214842549DF82D202046611CCCB20D
:101B20001D490A549DF82C202046611CCCB21A494C
:101B30000A549DF831202046611CCCB216490A5443
:101B40009DF830202046611CCCB213490A549DF800
:101B500035202046611CCCB20F490A549DF8342030
:101B60002046611CCCB20C490A54201FC8700025C5
:101B700005E00948405D3044C6B2681CC5B2A542C4
:101B8000F7DB2046611CCCB203490E5421460248C3
:101B9000FFF70EFE7FBD00000A0F00202DE9F84F71
:101BA00006460F4690469946DDF828B00024A24626
:101BB000AA222146641C5F4842542146641C4254B8
:101BC00002222146641C425400222146641C4254D5
:101BD00000969DF801202146641C42549DF8002087
:101BE0002146641C425400979DF801202146641C44
:101BF00042549DF800202046611CCCB24D490A5445
:101C0000CDF800809DF801202046611CCCB24949E6
:101C10000A549DF800202046611CCCB245490A5464
:101C2000CDF800909DF801202046611CCCB24149BE
:101C30000A549DF800202046611CCCB23D490A544C
:101C4000CDF800B09DF801202046611CCCB2394986
:101C50000A549DF800202046611CCCB235490A5434
:101C60000B9800909DF801202046611CCCB23149B0
:101C70000A549DF800202046611CCCB22D490A541C
:101C80000C9800909DF801202046611CCCB2294997
:101C90000A549DF800202046611CCCB225490A5404
:101CA0000D9800909DF801202046611CCCB221497E
:101CB0000A549DF800202046611CCCB21D490A54EC
:101CC0000E9800909DF801202046611CCCB2194965
:101CD0000A549DF800202046611CCCB215490A54D4
:101CE000002000909DF801202046611CCCB21149D3
:101CF0000A549DF800202046611CCCB20D490A54BC
:101D0000201FC870002506E00A48405D504400F0DE
:101D1000FF0A681CC5B2A542F6DB2046611CCCB2A6
:101D2000044901F800A021460248FFF741FDBDE843
:101D3000F88F00000A0F002073B500240026AA22A5
:101D40002146641C234842542146641C4254072205
:101D50002146641C425400222146641C42549DF8D2
:101D600003202146641C42549DF802202146641C35
:101D700042549DF801202146641C42549DF80020E5
:101D80002046611CCCB213490A549DF80520204618
:101D9000611CCCB20F490A549DF804202046611CF6
:101DA000CCB20C490A54201FC870002505E0094830
:101DB000405D3044C6B2681CC5B2A542F7DB204680
:101DC000611CCCB203490E5421460248FFF7F0FCD7
:101DD0007CBD00000A0F00202DE9FE4F82460E4612
:101DE00017469846DDF830B00024CDF80480A146AF
:101DF000AA222146641C484842542146641C42548D
:101E000001222146641C425400222146641C425493
:101E100042495046FEF702FA0090FEF7A7FB00B2D7
:101E200002909DF809202146641C3B4842549DF8CD
:101E300008202146641C425438493046FEF7EEF92A
:101E40000090FEF793FB00B202909DF80920214616
:101E5000641C314842549DF808202146601CC4B2DD
:101E60002D4842542D493846FEF7D8F90090FEF728
:101E70007DFB00B202909DF809202046611CCCB287
:101E800025490A549DF808202046611CCCB22249FD
:101E90000A549DF807202046611CCCB21E490A5402
:101EA0009DF806202046611CCCB21B490A549DF8BF
:101EB00005202046611CCCB217490A549DF8042025
:101EC0002146601CC4B2144842542046611CCCB266
:101ED000114901F800B02146621CD4B20E4A0D9897
:101EE0005054201F1146C870002506E00A48405D86
:101EF000484400F0FF09681CC5B2A542F6DB204645
:101F0000611CCCB2044901F8009021460248FFF759
:101F10004FFCBDE8FE8F00000A0F00200000C84201
:101F20002DE9F84306460F4690460024A146AA2212
:101F30002146641C264842542146641C42540B220C
:101F40002146641C425400222146641C42540096DF
:101F50009DF801202146641C42549DF80020214632
:101F6000641C425400979DF801202146641C425491
:101F70009DF800202046611CCCB215490A54CDF8CA
:101F800000809DF801202046611CCCB210490A5403
:101F90009DF800202046611CCCB20D490A54201F38
:101FA000C870002506E00A48405D484400F0FF097B
:101FB000681CC5B2A542F6DB2046611CCCB20449C0
:101FC00001F8009021460248FFF7F2FBBDE8F883D4
:101FD0000A0F002070B5072003F0BCF9044604F096
:101FE000400098B1602003F0B5F90546212D08DACC
:101FF0002A460E49612003F08BF900200C49088025
:1020000003E0FF21E22003F0DDF900BF04F010003F
:1020100030B104F0010018B1FF21E12003F0D2F942
:102020002146272003F0CEF970BD0000D40A00201D
:102030008600002070B504460D464FF48070394983
:102040000860052238492A2003F09AF90522374909
:10205000302003F095F90121212003F0B3F901218B
:10206000222003F0AFF91A21242003F0ABF929460E
:10207000252003F0A7F90F21262003F0A3F9012C56
:1020800008D12021312003F09DF90F21202003F0F9
:1020900099F941E0022C08D12021312003F092F976
:1020A0000E21202003F08EF936E0032C1AD1FF21F7
:1020B000E12003F087F9FF21E22003F083F90F21EB
:1020C000202003F07FF9502003F008FE732003F076
:1020D00005FE01213C2003F075F906213D2003F0A7
:1020E00071F919E00E21202003F06CF9FF21E120A5
:1020F00003F068F9FF21E22003F064F9502003F0B7
:10210000EDFD732003F0EAFD01213C2003F05AF9B4
:1021100006213D2003F056F94FF480700149091F54
:10212000086070BD140801406983000864830008DA
:1021300070B504460D464FF48070064908602A4683
:102140002146A82003F01CF94FF480700149091FB3
:10215000086070BD1408014010B588B00446012124
:10216000880303F03FFC0121084603F03BFC0121FA
:10217000042003F037FC4FF40070ADF80400032096
:102180008DF8060018208DF8070001A9254801F0F8
:1021900031F94FF48060ADF8040003208DF806009B
:1021A00004208DF8070001A91E4801F023F90494CA
:1021B0000020ADF81400ADF81600ADF81800ADF829
:1021C0001C000C20ADF81A000020ADF80800ADF896
:1021D0000A004FF40070ADF80C000020ADF80E00BE
:1021E00004A9114804F0CEFA02A90F4804F07AFAC3
:1021F000012240F225510C4804F09EFA01210A48C0
:1022000004F081FA25208DF8000005208DF80100EA
:1022100001208DF802008DF80300684603F04CF9A8
:1022200008B010BD00080140003801402DE9F04F12
:1022300089B00746022603AC4FF000084FF00009B2
:102240004FF0000A162F7CD2DFE807F07BFDCF9B12
:102250007BFB99DE7B7B7B7B7B7B7B7B0B12192063
:102260002728DFF85083DFF85093DFF850A316E0FB
:10227000DFF84C83DFF84C93DFF84CA30FE0DFF876
:102280004C83DFF84C93DFF84CA308E0DFF8488379
:10229000DFF84893DFF848A301E000BF00BFB8F1C2
:1022A000000F20D0D8F81000CE49FDF7B7FF8346C5
:1022B000FEF75CF900B2ADF81000D8F81400C94977
:1022C000FDF7ACFF8346FEF751F900B2ADF81200FE
:1022D000D8F81800C349FDF7A1FF8346FEF746F979
:1022E00000B2ADF81400B9F1000F20D0D9F81000F9
:1022F000BC49FDF793FF8346FEF738F900B2ADF80D
:102300001600D9F81400B749FDF788FF8346FEF799
:102310002DF900B2ADF81800D9F81800B149FDF751
:102320007DFF8346FEF722F900B2ADF81A00BAF13C
:10233000000F22D0DAF81000AA49FDF76FFF83469C
:1023400000E000E1FEF712F900B2ADF81C00DAF887
:102350001400A449FDF762FF8346FEF707F900B2B7
:10236000ADF81E00DAF818009E49FDF757FF8346C6
:10237000FEF7FCF800B2ADF820001226E4E00826D3
:10238000E2E09948808800B2ADF810009648C08815
:1023900000B2ADF812009448008800B2ADF8140005
:1023A0009148408800B2ADF816008F48008900B20D
:1023B000ADF818008C48408900B2ADF81A008A4880
:1023C000808900B2ADF81C008748C08900B2ADF822
:1023D0001E008548008A00B2ADF820008248408A7D
:1023E00000B2ADF822001426AEE0804801680491E6
:1023F00041680591806806907D4801680791808852
:10240000ADF8200012269FE07A480078012805D117
:102410007949C868FEF7AAF8029001E0002002900E
:10242000BDF80A00ADF81000BDF80800ADF81200C4
:1024300071498868FEF7B3F800B2ADF814000626BB
:1024400082E07FE0FFE76B480078012805D16A4908
:102450004868FEF78BF8029001E000200290674880
:10246000006880F0004066490190FDF7D7FE834682
:10247000FEF77CF800B2ADF810006049486860498A
:10248000FDF7CCFE8346FEF771F800B2ADF81200FE
:102490005A48806880F0004059490190FDF7BEFE1F
:1024A0008346FEF763F800B2ADF81400BDF80A00E9
:1024B000ADF81600BDF80800ADF818005148807856
:1024C00030B1012808D0022814D003282ED11FE0F3
:1024D00000204D4948602DE04B480078012804D188
:1024E00040F201104849486003E04FF480704649CB
:1024F00048601FE044480078012804D140F20120E0
:102500004149486003E04FF400703F49486011E0E2
:102510003D480078012804D140F201303A49486032
:1025200003E04FF440703849486003E0002036492A
:10253000486000BF00BF3448406800B2ADF81A00E0
:102540000C2601E000E000BF00BF4AF6AA20ADF86B
:102550000C0046EA072000B2ADF80E005421301DF1
:10256000215402251AE06057691C615648406055A5
:10257000681C205661574840691C6054605761567A
:1025800048406055615D681C205C0144301D205C42
:10259000084441B2301D2154A81CC5B2301D8542EB
:1025A000E1DB701DC1B2204604F084F809B0BDE83B
:1025B000F08F000054030020D403002054040020B6
:1025C00054050020D4040020D40500205406002027
:1025D000D40600205408002054070020D40800200E
:1025E000D407002000007A442003002008030020C4
:1025F000320000203000002044030020140300209B
:102600000000C8423C000020380300202DE9F843B8
:102610009248007820B1012806D002287AD117E02C
:1026200001208E49087016E18D48007818B102200B
:102630008A4908700BE00220FFF7F8FD0120FFF740
:10264000F5FD0320FFF7F2FD0720FFF7EFFD02E1A4
:102650008348007810B901208049087080480078CC
:10266000C0F38010E8B11020FFF7E0FD012005F075
:1026700095F81120FFF7DAFD012005F08FF8122000
:10268000FFF7D4FD012005F089F81320FFF7CEFDF8
:10269000012005F083F87248007820F0400070496E
:1026A00008706F48007800F03F0000287ED00025B9
:1026B000002600276A48007800F0010050B1694DFB
:1026C000694E6A4F6A4C6648007820F00100644900
:1026D000087031E062480078C0F3400050B1654DA9
:1026E000654E664F664C5E48007820F002005C49FB
:1026F000087021E05A480078C0F3800058B1614D5D
:10270000614E624F624C5648007820F004005449F4
:10271000087011E09EE052480078C0F3C00050B14C
:102720005C4D5D4E5D4F5E4C4D48007820F00800DA
:102730004B49087000E08EE065B320788DF8010009
:1027400060788DF80000BDF80000FDF7F9FE8046C6
:102750005449FDF795FD2861A0788DF80100E078D7
:102760008DF80000BDF80000FDF7EAFE80464D49F7
:10277000FDF786FD686120798DF8010060798DF89C
:102780000000BDF80000FDF7DBFE80464549FDF77F
:1027900077FDA86176B3A0798DF80100E0798DF816
:1027A0000000BDF80000FDF7CBFE00E051E08046E0
:1027B0003C49FDF765FD3061207A8DF80100607AB3
:1027C0008DF80000BDF80000FDF7BAFE80463549DF
:1027D000FDF756FD7061A07A8DF80100E07A8DF862
:1027E0000000BDF80000FDF7ABFE80462D49FDF767
:1027F00047FDB06167B3207B8DF80100607B8DF8E9
:102800000000BDF80000FDF79BFE80462549FDF75E
:1028100037FD3861A07B8DF80100E07B8DF800006A
:10282000BDF80000FDF78CFE80461E49FDF728FD2F
:102830007861207C8DF80100607C8DF80000BDF887
:102840000000FDF77DFE80461649FDF719FDB861D1
:1028500000BF00E000BF00BFBDE8F883AC0100206E
:10286000A201002054030020D403002054040020BF
:10287000540D002054050020D4040020D40500206D
:10288000660D002054060020D406002054080020C5
:10289000780D002054070020D4080020D407002021
:1028A0008A0D002000007A4400BFFEE770B506469E
:1028B0000C4615462946204605F094F8A06A30607B
:1028C0002946304605F08EF870BD21B1026842F00D
:1028D0000102026004E002684FF6FE731A400260D3
:1028E0007047000001684FF6FE7211400160002140
:1028F000016041608160C1604B49884208D14A490A
:102900000839496841F00F01474A083A51608AE0A6
:1029100045491431884208D143490839496841F092
:10292000F001414A083A51607DE03F492831884230
:1029300008D13D490839496841F470613A4A083A7A
:10294000516070E038493C31884208D13649083935
:10295000496841F47041344A083A516063E03249B1
:102960005031884208D130490839496841F4702112
:102970002D4A083A516056E02B496431884208D10B
:1029800029490839496841F47001274A083A5160D9
:1029900049E025497831884208D1234908394968F6
:1029A00041F07061204A083A51603CE01F4988427A
:1029B00006D1011F096841F00F01021F116032E0CA
:1029C0001A491431884208D11849091F096841F091
:1029D000F001164A121F116025E01449283188427F
:1029E00008D11249091F096841F470610F4A121F8A
:1029F000116018E00D493C31884208D10B49091F8C
:102A0000096841F47041094A121F11600BE007493F
:102A10005031884207D10549091F096841F47021E6
:102A2000024A121F11607047080002400804024069
:102A300010B50022026847F6F0739A430C6A8B685F
:102A400023430C6923434C6923438C692343CC699A
:102A500023434C6A23438C6A23431A430260CB68A6
:102A600043600B6883604B68C36010BD7047000013
:102A70002DE9F04105F0BEFA05F0F4FA1D490860B1
:102A800005F082FA05F0F4F91B4908600846016870
:102A90001A48FDF7BDFB04461949FDF7F1FB19493A
:102AA0000860154801681548FDF7B2FB074616494E
:102AB000FDF7B4FB06461549FDF7B0FB0446114887
:102AC00001681348FDF7AAFB07460E48016838461F
:102AD000FDF7A4FB06460B4801683046FDF79EFB58
:102AE00005462146FDF742FB0A4908600846006892
:102AF000BDE8F081F4000020F80000200044C54744
:102B000000007A44EC000020EC51B83D0000C842BF
:102B100085EB513FF000002023490978234A1170CA
:102B20000021214A117022490978224A117000219E
:102B30001F4A117020490978204A117000211E4A4D
:102B400011701F4909781F4A117000211C4A117029
:102B50001A4909780A2903DD00211B4A117005E092
:102B600000211A4A11700121174A1170154909787C
:102B70000A2903DD0021164A117002E00121144ADE
:102B800011700021134A1160002009E0124951F828
:102B90002010104A126811440E4A1160411CC8B23C
:102BA0000628F3DB7047000084000020830000202B
:102BB0003B0200203A020020E3000020E200002057
:102BC000E7000020E6000020E4000020E5000020EF
:102BD000E800002024000020B402002010B501F01D
:102BE000A5F80D49C86002F077FF0C4802F068FDB7
:102BF0000A4800F07FF90A4801F0E0F90A2001F0E4
:102C00001FFB064801F0B6F801F090F80249C968C8
:102C1000401A0149C86010BDB4020020A69BC43B05
:102C20000AD7233C10B501F081F806490861FFF787
:102C3000EDFC01F07BF803490969401A014908617C
:102C400010BD0000B402002010B501F06FF8084973
:102C5000086002F08BF9074800F0ACF801F0E2FFE1
:102C600001F064F802490968401A0149086010BD82
:102C7000B40200206F12033B10B501F057F8094968
:102C80004860FFF7A7F9FEF7D9F802F09DFF064864
:102C900001F07EFF01F04AF802494968401A0149F3
:102CA000486010BDB40200206F12833B10B501F0E4
:102CB0003DF80849486102F043FC00F027F803F0B2
:102CC000D9FD01F033F803494969401A01494861C7
:102CD00010BD0000B402002010B501F027F807492C
:102CE0008860074A0749084800F060FC01F01EF8B8
:102CF00002498968401A0149886010BDB402002069
:102D0000A69BC43B14030020080300200020214997
:102D100008802148007820B90846008840F001006A
:102D200008801E48007828B91A48008840F0020040
:102D3000184908801A48007828B91648008840F0D9
:102D40000400144908801748007828B11148008809
:102D500040F008000F4908801348007828B90D4852
:102D6000008840F010000B490880104800780128C6
:102D700005D10848008840F02000064908800C482A
:102D8000007828B90348008840F0400001490880D5
:102D900070470000B4010020800000208200002065
:102DA00081000020E1000020E400002074000020E9
:102DB000E800002070B5044642480078012806D09B
:102DC0000B280BD01F2817D0FF286FD165E03E4895
:102DD000007810B10B203B4908706BE008213B489C
:102DE00004F0EAFD00203A494862086039498860E9
:102DF0001F20344908705DE03749B1F90600FDF73E
:102E000096FB0546354801682846FDF707FA344920
:102E100048623149B1F90800FDF789FB05462F48A2
:102E200001682846FDF7FAF92E4948622A49B1F9A6
:102E30000A00FDF77CFB0546284801682846FDF797
:102E4000EDF92949486223484068284948622148E9
:102E50000068274948621F4880681D49486221462A
:102E6000234804F0BFFD2248806A1D4908602146BE
:102E70001B4804F0B7FD21461C4804F0B3FD1B4875
:102E8000806A184908602146164804F0ABFD2246C6
:102E90000F491548FFF70AFD0CE008210B4804F024
:102EA0008BFD01200749087004E0FFE7FF2005497A
:102EB000087000BF00BF0448007810B9FF20014926
:102EC000087070BD2802002038030020CC010020CB
:102ED000D405002014030020080300207C83000890
:102EE00054030020D403002054040020D404002004
:102EF0005405002070B5044696255C48407E0128A4
:102F000074D15B4948685B49FDF7E0FB6ED25849D4
:102F100048685949FDF7D0FBF8D25848408840F23C
:102F20007261884211DC5548408840F2465188421F
:102F30000BDB5248008840F27261884205DC4F4842
:102F4000008840F2465188420ADA002047498860EA
:102F5000C86001204A49086000204A4908604AE0E8
:102F60004748006801280DD100204549086001202C
:102F7000444908604448C06C444908604248806C39
:102F8000434908604048C06C4049486221463F4878
:102F900004F028FD3C48806C3D49486221463C488D
:102FA00004F020FD3949886A3A49FDF785FB01D2D2
:102FB000384809E03549886A3749FDF787FB01D26F
:102FC000354801E03148806A344908603049886AF0
:102FD0003049FDF771FB01D22E480AE02C49886A7E
:102FE0002D49FDF773FB02D22B4802E035E028485B
:102FF000806A2B4908602448C06C284948622146F1
:10300000264804F0EFFC2048806C254948622146A0
:10301000234804F0E7FC1B480068012825D11A4822
:10302000C06C1A4948621848806C194948620020EF
:103030000E498860C8601A49886218498862194830
:1030400001680068401C174A106064290DD90020EF
:10305000114608600B49086007E0002003498860BA
:10306000C8600F4988620D49886270BD680C0020F5
:10307000440300200000A04100007A452003002006
:1030800000020020080200208C0C0020D407002041
:103090005407002000007AC400007A44D4080020BD
:1030A000540800200402002070B504460025604842
:1030B000007820B1012814D002287DD123E0FE2C15
:1030C0000BD101205A4908705A4801780078401CF9
:1030D000584A10705848445402E00020544908707F
:1030E000A4E0042C0BD1022051490870514801780A
:1030F0000078401C4F4A10704F48445402E00020B2
:103100004B49087092E04B4801780078401C494ACE
:10311000107049484454104600780B287FD1002095
:103120004349087011460870434880784249C9787D
:1031300008444149097908443F49497908443E49CE
:10314000897908443C49C9790844C5B2AA2C66D19A
:103150003948007AA84262D138480078401C374983
:1031600008703549C978090209B2334A927841EAB0
:103170000200FDF7DCF9324908602F49497909025C
:1031800009B22D4A127941EA0200FDF7D0F92C4923
:1031900048602948407A08762749C979090209B266
:1031A000254A927941EA0200FDF7C1F92449C86134
:1031B0000A461168906800E032E0FCF7D7FF20492A
:1031C00088600A465168D068FCF7D0FF1C49C86087
:1031D0000A4611681069FCF7C9FF194908610A46D7
:1031E00051685069FCF7C2FF154948610846007EE6
:1031F00019280EDA13480078401C12490870084656
:1032000000783C280BDD3C20087000200C494876F3
:1032100005E000200B49087001200949487605E0C7
:103220000020034908700349087000BF00BF70BD4B
:103230009101002090010020E80C0020E700002010
:10324000680C0020920100202DE9F0474FF0824ADF
:103250005948407E012871D1584948685849FDF7BE
:1032600035FA6BD2554948685649FDF725FAF8D228
:103270005549498840F2DC52501AFDF758F9054685
:103280005249FCF7CBFF04465146FCF7C7FF5049B3
:1032900008604D49098840F2DC52501AFDF747F9A1
:1032A00005464A49FCF7BAFF04465146FCF7B6FF0B
:1032B000484908604649886AFDF79EF98046464AB3
:1032C000464BFDF7C2F806460022454BFDF7A8F92C
:1032D00002D2002042491AE03D49886AFDF78CF984
:1032E00080463D4A3D4BFDF7B0F8064600223D4B77
:1032F000FDF7AEF902D200203A4908E03449886A65
:10330000FDF77AF90646344A344BFDF79EF8044639
:10331000FDF7B6F9344908602E49886AFDF76CF963
:1033200006462D4A2D4BFDF790F8804600222C4B87
:10333000FDF776F903D2002029491BE020E025495A
:10334000886AFDF759F90646234A244BFDF77DF8B4
:1033500080460022234BFDF77BF902D20020214951
:1033600008E01C49886AFDF747F906461A4A1B4BD4
:10337000FDF76BF80446FDF783F91C49086019E076
:103380001149498840F2DC52501AFDF7D0F8044642
:103390001749FCF743FF144908600B49098840F2BC
:1033A000DC52501AFDF7C3F804461149FCF736FF0A
:1033B0000E490860BDE8F087680C00204403002037
:1033C0000000A04100007A45200300208FC2753D17
:1033D00054080020D40800209A9999999999B93FE6
:1033E00000002EC000002E40D40400205405002010
:1033F0000AD7233D2DE9F041024600250026002092
:1034000000230024002791F803C00CF00F0591F869
:1034100003C00CF0100CBCF1000F03D091F802C0F7
:103420004CEA050591F800C0BCF1000F31D01468DA
:1034300000202BE04FF0010C0CFA00F3B1F800C0B3
:103440000CEA03069E4220D183004FF00F0C0CFAC9
:1034500003F7BC4305FA03FC4CEA040491F803C0EB
:10346000BCF1280F06D14FF0010C0CFA00FCC2F899
:1034700014C00AE091F803C0BCF1480F05D14FF029
:10348000010C0CFA00FCC2F810C0401C0828D1D373
:103490001460B1F800C0BCF1FF0F34DD54680020A7
:1034A0002EE000F1080C4FF0010808FA0CF3B1F817
:1034B00000C00CEA03069E4221D183004FF00F0C9E
:1034C0000CFA03F7BC4305FA03FC4CEA040491F838
:1034D00003C0BCF1280F05D100F1080C08FA0CF864
:1034E000C2F8148091F803C0BCF1480F07D100F175
:1034F000080C4FF0010808FA0CF8C2F81080401CC4
:103500000828CED35460BDE8F0810000F0B50A462B
:10351000002300240021002500F00046B6F1004FF2
:1035200002D11D4EF16901E01B4E7168C0F30345E5
:1035300083B200F44016B6F5401F08D121F0706147
:10354000154E766826F07066134F7E6012E000F428
:103550008016B6F5801F06D1032606FA05F4A143AE
:1035600041F0706106E0460D360103FA06F6B143FC
:1035700041F0706122B1460D360103FA06F631437F
:1035800000F00046B6F1004F02D1034EF16101E0B8
:10359000014E7160F0BD0000000001400161704704
:1035A00001480068704700005402002007B59EB033
:1035B0004FF07C512098FCF731FE0C90FE4880685B
:1035C0000890FD48006807900899FCF727FE0A90CC
:1035D000F948C0680890F848406807900899FCF7D7
:1035E0001DFE09900A99FCF713FE4FF080410B90E5
:1035F000FCF714FE1B90F048C0680890EE48806805
:1036000007900899FCF70AFE0A90EB48406808907A
:10361000E948006807900899FCF700FE09900A99AC
:10362000FCF7A4FD4FF080410B90FCF7F7FD1C90D8
:10363000E14880680790E048806806900799FCF7A9
:10364000EDFD0990DC4840680790DB484068069033
:103650000799FCF7E3FD08900999FCF787FD4FF007
:1036600080410A90FCF7DAFD4FF07E510B90FCF799
:10367000D2FD1D90D148B0F904000690FCF757FF29
:103680000890CE48B0F904000690FCF750FF079070
:103690000899FCF7C3FD0A90C848B0F902000490ED
:1036A000FCF745FF0690C548B0F902000490FCF70E
:1036B0003EFF05900699FCF7B1FD0890BF48B0F9B0
:1036C00000000490FCF733FF0690BC48B0F90000FE
:1036D0000490FCF72CFF05900699FCF79FFD0790DE
:1036E0000899FCF743FD09900A99FCF73FFD0B9000
:1036F00002F024F90D901E98B0F900000A90FCF732
:1037000016FF0B900D99FCF789FD18901E98B0F9E3
:1037100002000A90FCF70BFF0B900D99FCF77EFD61
:1037200019901E98B0F904000A90FCF700FF0B9066
:103730000D99FCF773FD1A901C9809901A9808903F
:103740000999FCF76BFD0B901D980990199808904A
:103750000999FCF763FD0A900B99FCF759FD12904B
:103760001D980990189808900999FCF757FD0B903F
:103770001B9809901A9808900999FCF74FFD0A9038
:103780000B99FCF745FD13901B9809901998089028
:103790000999FCF743FD0B901C9809901898089024
:1037A0000999FCF73BFD0A900B99FCF731FD149049
:1037B00012980A90824801680A98FCF72FFD0B9036
:1037C0008048006801460A900B98FCF7CFFC7D49C1
:1037D000086013980A907A4801680A98FCF71EFD61
:1037E0000B907848406801460A900B98FCF7BEFCA5
:1037F0007449486014980A90714801680A98FCF767
:103800000DFD0B906F48806801460A900B98FCF7FD
:10381000ADFC6C4988601298014608906A480068BF
:10382000FCF7FCFC0A901E98B0F906000790FCF724
:103830007EFE0890654801680898FCF7EFFC099047
:103840000A99FCF793FC0B905E48006801460A90C9
:103850000B98FCF78BFC15901398014608905A487A
:103860000068FCF7DBFC0A901E98B0F9080007908E
:10387000FCF75DFE0890554801680898FCF7CEFCFF
:1038800009900A99FCF772FC0B904E48406801467B
:103890000A900B98FCF76AFC169014980146089061
:1038A00049480068FCF7BAFC0A901E98B0F90A0073
:1038B0000790FCF73CFE0890444801680898FCF724
:1038C000ADFC09900A99FCF751FC0B903D488068CB
:1038D00001460A900B98FCF749FC1790179808903E
:1038E0003548C06807900899FCF798FC0A9016982C
:1038F00006903148806805900699FCF78FFC089087
:103900002D48406880F000400690159801460590CB
:103910000698FCF783FC07900899FCF779FC09905E
:103920000A99FCF775FC0B900C99FCF777FC119049
:10393000179808902048806807900899FCF76EFC5B
:103940000A90169806901C48C06805900699FCF7E6
:1039500065FC089015980690174800680590069930
:10396000FCF75CFC07900899FCF752FC09900A9957
:10397000FCF7FCFB0B900C99FCF750FC109017988F
:1039800008900D48406807900899FCF747FC0A909A
:10399000169806900848006805900699FCF73EFCCA
:1039A0000890159806900448C06805900699FCF7A1
:1039B00035FC079008990BE0600200200803002006
:1039C0005C0200203C0F0020580200208083000889
:1039D000FCF7CCFB09900A99FCF71AFC0B900C99A8
:1039E000FCF71CFC0F9017980890C64800680790D9
:1039F0000899FCF713FC0A9016980690C148406895
:103A000005900699FCF70AFC0890BE48806880F093
:103A1000004006901598014605900698FCF7FEFBBD
:103A200007900899FCF7A2FB09900A99FCF79EFB06
:103A30000B900C99FCF7F2FB0E90B24800680B90CB
:103A40001199FCF793FBAF490860084640680B905A
:103A50001099FCF78BFBAB494860084680680B90D7
:103A60000F99FCF783FBA74988600846C0680B9054
:103A70000E99FCF77BFBA349C8600846C068089014
:103A80000846C06807900899FCF7C8FB0A909D4853
:103A9000806806909B48806805900699FCF7BEFBFD
:103AA00008909848406804909648406803900499AC
:103AB000FCF7B4FB069093480068049091480068B6
:103AC00003900499FCF7AAFB05900699FCF74EFBBE
:103AD00007900899FCF74AFB09900A99FCF746FB06
:103AE0000B9001F02BFF0D90864800680B900D990C
:103AF000FCF794FB83490860084640680B900D99D9
:103B0000FCF78CFB7F494860084680680B900D9954
:103B1000FCF784FB7B4988600846C0680B900D99D0
:103B2000FCF77CFB7749C860084640680146049072
:103B30004FF08040FCF772FB05907248C068014668
:103B400004900598FCF76AFB07906E4800680146F0
:103B500004904FF08040FCF761FB05906948806855
:103B6000014604900598FCF759FB06900799FCF76D
:103B70004FFB0B9063480068014604904FF0804073
:103B8000FCF74CFB05905F4840680146049005989F
:103B9000FCF744FB07905B488068014604904FF0B7
:103BA0008040FCF73BFB05905648C06801460490F6
:103BB0000598FCF733FB06900799FCF7D7FA0A90B3
:103BC00050488068014604904FF08040FCF726FB87
:103BD00005904C488068014604900598FCF71EFB50
:103BE000079048484068014603904FF08040FCF73A
:103BF00015FB049043484068014603900498FCF785
:103C00000DFB4FF07E510590FCF705FB06900799E0
:103C1000FCF7FEFA09901E98B0F90A000690FCF72E
:103C200086FC0790384801680798FCF7F7FA089077
:103C30004FF07E510898FCF749FD04D333490898AA
:103C4000FCF73AFD0DD220990898FCF7E7FA0790A7
:103C50001F988068014606900798FCF787FA1F991D
:103C600088602B480068FCF7C7FCCDE904010B987D
:103C7000FCF7C2FCCDE9000103F018FBCDE902011D
:103C8000DDE90423FCF7E1FBCDE90601FCF7F8FCD4
:103C90001F994860DDE9091003F040FC07901C48BB
:103CA00001680798FCF7BAFA1F9908601E98B0F9E6
:103CB00004000490FCF73BFC05900999FCF7AEFA70
:103CC00007901E98B0F902000290FCF730FC0390B8
:103CD0000A99FCF7A3FA05901E98B0F9000002902B
:103CE000FCF725FC03900B99FCF798FA04900599D2
:103CF000FCF73CFA06900799FCF738FA054908608A
:103D000021B000BD600200207C830008000080BF5D
:103D100074830008540200200248006802490860C9
:103D200070470000E8F7FF1F3800002000BF0E4872
:103D300001684FF0E02082690B4800688142F6D1AB
:103D40000A48006800EB4003C3EBC010C2EBC000A0
:103D5000064B1B68B0FBF3F001EB4103C3EBC1134F
:103D600000EBC300704700002C000020140000206E
:103D700000BFFEE72DE9F05F05467C49C8697C4934
:103D8000FCF79AFC06D27949C869FCF708FC794926
:103D9000086005E078494868FCF701FC754908604F
:103DA000FFF7FEFB0746FCF7E1FB04B2734800781F
:103DB00008B97348048072480088201A06B26D481A
:103DC0000068FCF7BDFB83466E4801685846FCF767
:103DD0001FFA82466C49FCF721FA81462946FCF716
:103DE0004FFA07463046FCF7A2FB83462946FCF70C
:103DF00015FA82466548416A5046FCF7B7F9814694
:103E00006349FCF70BFA80463946FCF7AFF95F4986
:103E1000486258480068FCF793FB5E49486259497C
:103E200008605648007810B9FF205B4908705A486E
:103E30000078012806D0022816D01F282AD0FF2893
:103E40007ED184E04D48007A00F0010058B14B4823
:103E5000007840B105205149887002204E49087011
:103E600000204F4908607EE04E498988A1F57A70AC
:103E7000FCF75DFB4A49086000204B4908704B483D
:103E8000B0F90000FCF753FB424908601F2042498B
:103E9000087068E0464942480068FCF767F9074641
:103EA00040498988A1F57A70FCF741FB8046394684
:103EB000FCF70CFC10D33E4939480068FCF7A8F920
:103EC000074638498988A1F57A70FCF730FB8046AF
:103ED0003946FCF7F1FB14D2364801780078401CD3
:103EE000344A107014290CDD2E498988A1F57A70A6
:103EF000FCF71DFB2A49086000202E4908702A495A
:103F000008702948007840B90120274908701948ED
:103F10000068FCF715FB1F49086029461D4803F09F
:103F200061FD1C48806A194908602946174803F05A
:103F300059FD1248007A00F0010038B9002000E075
:103F40000DE016498870FF20134908700BE001212D
:103F5000194803F031FD01200F49087003E00120EA
:103F60000D49087000BF00BFBDE8F09F680C00203D
:103F70000000C8431802002044030020380300203A
:103F800016020020240200200AD7A33C5406002079
:103F900048E17A3FD406002014020020700000207F
:103FA0001C0200202003002020020020FC01002031
:103FB0000000204121020020E40100202DE9F84FFB
:103FC00004469048007808B9BDE8F88F8E4800781C
:103FD00088B100208D4908608D490860FEF748FDD2
:103FE0000546FCF7C3FA8B49086000F0B3F90020DE
:103FF000854908702AE087480068FCF798FA064669
:10400000FEF736FD07463146FCF702F90546FCF798
:10401000ADFA7E49086000212046FCF74DFB01D136
:1040200000200AE079490968794A1268881AFCF781
:104030007EFA06462146FCF723F90546FCF796FA78
:1040400075490860714800687149086072480068E5
:10405000FCF76DFA054671482B46714A0A2100901B
:10406000704800F031FF70492046FCF7D7F806464B
:104070006E480068FCF75BFA0746684801683846F6
:10408000FCF7C9F805463146FCF716FB04D2664931
:104090002046FCF7C3F822E065492046FCF7BEF84D
:1040A000064662480068FCF742FA07465B4801682A
:1040B0003846FCF7B0F805463146FCF707FB04D25A
:1040C0005B492046FCF7AAF809E058480068FCF76D
:1040D0002EFA0546514801682846FCF79CF85549D8
:1040E00008605548016853480068FCF791F881461C
:1040F00052492046FCF792F8824651464FF07E50D6
:10410000FCF7BEF880464FF07E51FCF72FF80746CB
:1041100039464FF07E50FCF7B3F806464946FCF7A7
:104120007DF80546444801682846FCF71FF84249D7
:1041300008603F492046FCF771F8834600213E485D
:104140000068FCF7C3FA02D23B48006803E03A4833
:10415000006880F0004081465946FCF791F8074618
:104160000021FCF7A9FA01D2002034E030492046B2
:10417000FCF754F8834600212F480068FCF7A6FAA4
:1041800002D22D48006803E02B48006880F0004010
:1041900081465946FCF774F807464FF07E51FCF70C
:1041A00095FA02D24FF07E5015E021492046FCF7E7
:1041B00035F88146002120480068FCF787FA02D2D2
:1041C0001D48006803E01C48006880F00040074676
:1041D0004946FCF755F88046164801684046FCF70A
:1041E0001DF8064611480068FCF7A1F982463146E1
:1041F000FBF7BCFF0546FCF7B9F90C49086000BFA6
:10420000E2E600003000002020010020FC00002039
:1042100000010020040100200801002010010020FE
:1042200014010020840B00200000FAC40C010020BF
:104230000000FA44180100201C010020C3F548408A
:1042400070B504463248007800B970BD3148007836
:1042500000284AD03048006830490860304800687B
:1042600030490860304831498860314988683149AF
:10427000FCF706F82D4908602A480068FCF757F952
:104280002A4948602C48C8602046FCF759F9064680
:104290002A49FBF7C3FF0546244903F097FA224851
:1042A000274988602148406908601C480068FCF77D
:1042B0003EF9234948602348C8602046FCF740F98E
:1042C00006461E49FBF7AAFF05461D4903F07EFA84
:1042D00011480068FCF72BF91B49C8601848406971
:1042E00048601248406988600FE018480088401C08
:1042F0001649088008460088C82803DD01200549C2
:10430000087002E001201249087000BF9DE700001C
:10431000300000203C010020FC000020240100208F
:104320000C01002028010020CDCC4C3FC40B002004
:104330001403002000002041000048436F12833A1C
:10434000AC0B00200000C84244030020880100207C
:1043500020010020002003494861086102494861AA
:1043600008617047C40B0020AC0B002008B540204A
:10437000304908600120009004E09DF80000401ED4
:10438000C0B200909DF800000028F6D18020294995
:1043900008600120009004E09DF80000401EC0B2BB
:1043A00000909DF800000028F6D140202149091F07
:1043B00008600120009004E09DF80000401EC0B29B
:1043C00000909DF800000028F6D10120009004E044
:1043D0009DF80000401EC0B200909DF8000000282B
:1043E000F6D10120009004E09DF80000401EC0B20C
:1043F00000909DF800000028F6D10120009004E014
:104400009DF80000401EC0B200909DF800000028FA
:10441000F6D14020074908600120009004E09DF893
:104420000000401EC0B200909DF800000028F6D1A8
:1044300008BD0000140C014008B540203049086058
:104440000120009004E09DF80000401EC0B20090E2
:104450009DF800000028F6D180202949091F086036
:104460000120009004E09DF80000401EC0B20090C2
:104470009DF800000028F6D140202149091F08605E
:104480000120009004E09DF80000401EC0B20090A2
:104490009DF800000028F6D10120009004E09DF86E
:1044A0000000401EC0B200909DF800000028F6D128
:1044B0000120009004E09DF80000401EC0B2009072
:1044C0009DF800000028F6D10120009004E09DF83E
:1044D0000000401EC0B200909DF800000028F6D1F8
:1044E0004020074908600120009004E09DF800008A
:1044F000401EC0B200909DF800000028F6D108BD13
:10450000140C014008B50821002080222C4B1A60B1
:104510004CE04206100E4022294B1B1D1A6001225E
:10452000009204E09DF80020521ED2B200929DF845
:104530000020002AF6D10122009204E09DF800201C
:10454000521ED2B200929DF80020002AF6D14022DD
:104550001B4B1A600122009204E09DF80020521EBD
:10456000D2B200929DF80020002AF6D101220092DA
:1045700004E09DF80020521ED2B200929DF8002067
:10458000002AF6D10122009204E09DF80020521E7C
:10459000D2B200929DF80020002AF6D1084A083ACB
:1045A000126802F080020AB140F001000A00A1F195
:1045B0000103D9B2ADD14022014B1B1D1A6008BDC9
:1045C000100C014008B5082150E040222C4B1A6025
:1045D0000122009204E09DF80020521ED2B2009207
:1045E0009DF80020002AF6D100F0800222B180223E
:1045F000234B1B1F1A6002E08022214B1A604206E7
:10460000100E0122009204E09DF80020521ED2B24A
:1046100000929DF80020002AF6D14022184B1B1F63
:104620001A600122009204E09DF80020521ED2B2CE
:1046300000929DF80020002AF6D10122009204E0A9
:104640009DF80020521ED2B200929DF80020002A50
:10465000F6D10122009204E09DF80020521ED2B251
:1046600000929DF80020002AF6D100BF0A00A1F1B7
:104670000103D9B2A9D14022014B1A6008BD000044
:10468000140C014008B580202249086040200860D1
:104690000120009004E09DF80000401EC0B2009090
:1046A0009DF800000028F6D11A480838006808B9BB
:1046B000012000E0002000F0800008B1012008BDCA
:1046C00080201449091D08600120009004E09DF835
:1046D0000000401EC0B200909DF800000028F6D1F6
:1046E0000C480838006800F0800008B10120E6E7B7
:1046F00040200849091D08600120009004E09DF851
:104700000000401EC0B200909DF800000028F6D1C5
:1047100000BFD4E7100C014008B5402024490860D0
:104720000120009004E09DF80000401EC0B20090FF
:104730009DF800000028F6D180201D490860012066
:10474000009004E09DF80000401EC0B200909DF86B
:1047500000000028F6D10120009004E09DF8000040
:10476000401EC0B200909DF800000028F6D1402005
:104770000F49091F08600120009004E09DF8000027
:10478000401EC0B200909DF800000028F6D18020A5
:104790000749091F08600120009004E09DF800000F
:1047A000401EC0B200909DF800000028F6D108BD60
:1047B000140C014008B540202A49086001200090EF
:1047C00004E09DF80000401EC0B200909DF800007B
:1047D0000028F6D180202349091F0860012000909D
:1047E00004E09DF80000401EC0B200909DF800005B
:1047F0000028F6D140201B49091F086001200090C5
:1048000004E09DF80000401EC0B200909DF800003A
:104810000028F6D10120009004E09DF80000401E21
:10482000C0B200909DF800000028F6D10120009051
:1048300004E09DF80000401EC0B200909DF800000A
:104840000028F6D107480C38006800F0800020B13D
:10485000402004490860012008BD4020014908604B
:104860000020F9E7140C014008B50121082001F0EF
:10487000B9F8C020ADF8000003208DF80200142024
:104880008DF8030069460248FEF7B4FD08BD00003C
:10489000000C014070B504460D461646FFF7F2FEC7
:1048A000012800D170BDE0B2FFF78CFEFFF782FF58
:1048B000012803D1FFF730FF0120F3E7E8B2FFF74B
:1048C00081FEFFF777FFFFF7DDFE611CC8B2FFF73F
:1048D00079FEFFF76FFFFFF715FE40B23070FFF76C
:1048E0001BFF0020DEE770B504460D460026FFF7EB
:1048F000C9FE012800D170BD2046FFF763FEFFF717
:1049000059FF012803D1FFF707FF0120F3E72846ED
:10491000FFF758FEFFF74EFFFFF7FEFEFFF7B2FE70
:10492000611CC8B2FFF74EFEFFF744FF012803D118
:10493000FFF7F2FE0120DEE7FFF7E4FD0646FFF792
:104940007BFDFFF7E9FE70B2D5E770B506460C4671
:104950001546FFF797FE012800D170BD3046FFF7DE
:1049600031FEFFF727FF012803D1FFF7D5FE012015
:10497000F3E72046FFF726FEFFF71CFF2846FFF768
:1049800021FEFFF717FFFFF7C7FE0020E5E72DE93F
:10499000F04106460F4615461C46FFF773FE0128F8
:1049A00001D1BDE8F0813046FFF70CFEFFF702FFB2
:1049B000012803D1FFF7B0FE0120F2E73846FFF7E8
:1049C00001FEFFF7F7FEFFF7A7FEFFF75BFE711C86
:1049D000C8B2FFF7F7FDFFF7EDFE012803D1FFF79F
:1049E0009BFE0120DDE70CE0FFF78CFD2870012C19
:1049F00002D1FFF721FD01E0FFF7B8FC6D1C601E3E
:104A0000C4B2002CF0D1FFF787FE0020C9E70000F8
:104A10004CF6CC400149086070470000003000406F
:104A200010B500F013F810BD70B505460C4645F200
:104A3000555000F01FF8284600F010F8204600F00E
:104A400013F800F003F8FFF7E3FF70BD4AF6AA2061
:104A5000014908607047000000300040014948608B
:104A60007047000000300040014988607047000036
:104A700000300040014908607047000000300040ED
:104A800013494989134A127891421FD01149097874
:104A900008290CD004DC012907D002290DD105E03A
:104AA000102908D0802908D106E00AE009E0012198
:104AB000094A117005E004E003E00021064A117084
:104AC00000BF00BF0249897A024A11707047000096
:104AD00020030020470200203C02002008B54FF0D0
:104AE00000700C4948600121092000F07BFF012182
:104AF0000948FEF70BFD40F20A30ADF80000102027
:104B00008DF8030003208DF8020069460348FEF784
:104B100071FC08BD0000014000023000000C0140A3
:104B200019488088401C00B2174988800846C08810
:104B3000401C00B2C88008460089401C00B20881B1
:104B400008464089401C00B2488108468089401CC4
:104B500000B288810846C089401C00B2C88108465E
:104B6000008A401C00B2088208460078012804DB55
:104B700008464088401C488004E003480078401CF8
:104B80000149087070470000A002002000BFFEE746
:104B900070B506461D4C1E480078012835D11D48C9
:104BA000408940F2A46188420CDA02201A498870D8
:104BB0001748007A20F00100401C15490872FEF7E2
:104BC00043FB22E00120144988701148007A20F04C
:104BD00001000F4908720F49498840F2DC52501A0F
:104BE000FBF7A5FC05460949FBF718FB0B490860D4
:104BF0000849098840F2DC52501AFBF798FC054638
:104C00000249FBF70BFB0649086070BD0AD7233D3C
:104C100038030020200300203C000020D4040020A2
:104C2000540500202DE9F0479E48007810B9FF2078
:104C30009D4908709C480078012806D0022811D0B0
:104C40001F2819D0FF287DD1C6E000209749C880D1
:104C50008880488008809348007810B102209249EB
:104C6000087000BF9248808840F24C41884202DDC3
:104C70001F208D490870BAE08A48007A00F00100D0
:104C800080B18B498988A1F57A70FBF750FC064604
:104C90008848816A3046FBF769FA0546FBF766FCEF
:104CA00004B204E082488088A0F57A7004B280489B
:104CB0008088B0F57F7F06DA00207C49C880888034
:104CC0004880088093E0002C01DA002006E0B4F56B
:104CD000617F02DD4FF4617000E020467349C880B7
:104CE000888048800880744A916A744A906AFBF709
:104CF0008FFA80467248816A4046FBF789FA064679
:104D00006A49B1F90000FBF712FC07463146FBF790
:104D10002DFA0546FBF72AFC00B264490880664A72
:104D2000916A664A906AFBF721FA80466448816A74
:104D30004046FBF71BFA06465C49B1F90200FBF757
:104D4000F6FB00E052E007463146FBF70FFA054656
:104D5000FBF70CFC00B2554948805848806A80F047
:104D600000485548816A4046FBF700FA0746544818
:104D7000816A3846FBF74CFA06464C49B1F9040003
:104D8000FBF7D5FB81463146FBF7F0F90546FBF70B
:104D9000EDFB00B2454988804848806A80F00048B1
:104DA0004548816A4046FBF733FA07464448816A22
:104DB0003846FBF7DBF906463C49B1F90600FBF73C
:104DC000B6FB81463146FBF7D1F90546FBF7CEFB32
:104DD00000B23649C8800AE000203449C880888083
:104DE0004880088001203049087000E000BF00BF03
:104DF0002E48B0F90000002801DA00200BE02B4813
:104E0000B0F90000B0F57A7F02DD4FF47A7002E06D
:104E10002648B0F900004FF0804188862348B0F959
:104E20000200002801DA00200BE02048B0F902005F
:104E3000B0F57A7F02DD4FF47A7002E01B48B0F9DA
:104E400002004FF0804108871848B0F9040000289C
:104E500001DA00200BE01548B0F90400B0F57A7FC4
:104E600002DD4FF47A7002E01048B0F904001549F1
:104E700008800E48B0F90600002801DA00200BE097
:104E80000A48B0F90600B0F57A7F02DD4FF47A7077
:104E900002E00648B0F906000A49091D0880BDE88D
:104EA000F087000038030020290200200C020020B7
:104EB0002003002054060020D403002054030020C7
:104EC00054040020340400402DE9FC5F06460F46E0
:104ED000154698460C9CB9462888401C80B228800C
:104EE000484501DB00202880288856F820A0288823
:104EF00046F820804846FBF723FB51460190404688
:104F0000FBF786F900900199FBF7BAF9834621680F
:104F1000FBF72CF9206040462168FBF779F911492D
:104F20000090FBF7C9FB01D20E4810E04046216813
:104F3000FBF76EF94FF07E510090FBF7C7FB02D2F2
:104F40004FF07E5003E040462168FBF761F90649C7
:104F50000190FBF763F983462168FBF707F92060AE
:104F6000BDE8FC9F000080BFACC527372DE9FE4F90
:104F700006236A463B21D020FFF709FD06230DF1E9
:104F800006024321D020FFF702FD002458E0012053
:104F900000EB44001DF800001DF8141040EA012049
:104FA000294931F81410401A00B22849096821F83B
:104FB0001400032C1BDA2549096831F91400FBF7AA
:104FC000B6FA054604EB4401214A02EBC10029462A
:104FD00002F032FC04EB44011D4A02EBC101886877
:104FE000FBF7C4FA00B21949096821F81400022C31
:104FF00024DDE01EC5B2DFF85C801449096831F990
:105000001400FBF794FA82464146FBF707F907467E
:10501000114951F825001149FBF700F9814639463D
:10502000FBF7A4F80C4941F825000646FBF79EFA69
:1050300000B20649096821F8140000BF601CC4B220
:10504000062CA4DBBDE8FE8F400B00209000002062
:10505000940000209A99193E4C0B00209A99593FD0
:10506000F0B58BB0182105A8FBF775F81E250526AD
:105070007742002003900490404800210160416085
:1050800081604FF400503D498880002201213C4856
:1050900001F00EF83BE000BF0A2002F07FFBFFF7B3
:1050A00065FF002416E037480168E01C31F8100065
:1050B00003A931F81410401A00B201A921F8140014
:1050C00030480168E01C31F8100003A921F81400F1
:1050D000601C04B2032CE6DBBDF904000528DBDC10
:1050E000BDF9040010F1050FD6DBBDF90600052857
:1050F000D2DCBDF9060010F1050FCDDBBDF90800CB
:105100000528C9DCBDF9080010F1050FC4DB280033
:10511000A5F10101CDB2BED1002417E0FFF726FFB3
:10512000642C11DB00200CE005A951F82010154A71
:10513000126832F91020114405AA42F82010411CCF
:10514000C8B20628F0DB00BF601C04B2B4F5B27F21
:10515000E4DB002409E005A850F82400001200B2A6
:10516000064921F81400601C04B2062CF3DB01226E
:105170001146034800F09CFF0BB0F0BD400B00202F
:10518000000400409000002010B500244FF400708F
:1051900025490860401008600220091F08600820A7
:1051A000086000BF80226B21D020FFF7CEFBC4B285
:1051B0001E2002F0F3FA02221921D020FFF7C5FBCE
:1051C0002044C4B203226B21D020FFF7BEFB204451
:1051D000C4B203221A21D020FFF7B7FB2044C4B287
:1051E00018221B21D020FFF7B0FB2044C4B20922B3
:1051F0001C21D020FFF7A9FB2044C4B201200B4999
:105200000870002CCED17521D020FFF76CFBC4B202
:10521000682C01D0012010BDFFF722FF00200349B8
:10522000087000BFF7E70000140C01408000002068
:10523000704700001FB510A103C9CDE90201052286
:1052400002A9302000F09CF805226946102000F0E9
:105250005FF8002406E01DF80400A52800D003E054
:10526000601CC4B2052CF6DB00BF052C02D0012067
:1052700004B010BD0020FBE7A5A5A5A5A500000072
:1052800008B501210C2000F0ADFB4FF48070ADF8A3
:10529000000010208DF8030003208DF802006946FD
:1052A0001948FEF7A7F84FF48050ADF80000102021
:1052B0008DF8030003208DF8020069461348FEF7BD
:1052C00099F84FF4807010491031086000010F49BF
:1052D000103108600420ADF8000048208DF803006C
:1052E00003208DF8020069460848FEF783F800F0B5
:1052F0007FFC4FF4807004491431086000010349B9
:105300001031086008BD000000080140000C014099
:105310002DE9F04107460D4616464FF480500C49E2
:105320000860384600F0DAFC8046002405E0FF20E3
:1053300000F0D4FC2855601CC4B2B442F7DB4FF433
:1053400080500349091F08604046BDE8F081000015
:10535000140C014070B504464FF4805007490860B2
:10536000204600F0BBFCFF2000F0B8FC05464FF4DF
:1053700080500249091F0860284670BD140C014086
:105380002DE9F04107460C4615464FF480500C4974
:105390000860384600F0A2FC8046002605E014F8BC
:1053A000010B00F09BFC701CC6B2AE42F7DB4FF461
:1053B00080500349091F08604046BDE8F0810000A5
:1053C000140C014070B505460C464FF48050084956
:1053D0000860284600F082FC0646204600F07EFC6D
:1053E0004FF480500249091F0860304670BD00002C
:1053F000140C014010B5FFF743FF4FF40070124941
:105400000860401008600220091D0860082008603C
:1054100000BFFEF781FC0D4800687E21B0FBF1F271
:1054200001FB12000A490870084601780320FCF7C6
:1054300001FE012007490870FFF7FCFE0128E8D0B3
:1054400000200449087010BD100C014038000020F5
:10545000880000208100002010B513480088401CFF
:10546000114908800846008801280ED10F48C078ED
:10547000401DC1B20D48FBF7EBFF0D480078401C02
:105480000B49087001200B49087007480088B0F5E7
:10549000FA7F05DB012004490880002005490870D7
:1054A0000448007810BD000086000020D40A0020C7
:1054B000840000208900002070B5002100230F2205
:1054C000C47804B3154C246804F4E064C4F5E064C3
:1054D000210AC1F10403CA40447804FA03F1847834
:1054E0001440214309010E4C0678A155047804F0BC
:1054F0001F050124AC4005786D11AD0005F1E025D4
:10550000C5F8004109E0047804F01F050124AC400F
:10551000044D0678761145F8264070BD0CED00E08C
:1055200000E400E080E100E002490143024A11602A
:10553000704700000000FA050CED00E07047000025
:105540005A4800685A490968401A5A4909888842E5
:1055500000D2704755480068554908605548807822
:1055600006287DD2DFE800F026030E32435F4FF4B9
:10557000007051490860022008600002086008209D
:10558000086090E04C48001F006880F002004A4923
:10559000091F08600846006880F40070086008462B
:1055A000006880F0080008600846006880F4807099
:1055B000086078E04FF400703F49091D0860022040
:1055C0000860C0010860082008606CE04FF40070BB
:1055D000394908600220091D0860C001091F0860E0
:1055E0000820091D08600220324988705BE03248BB
:1055F000001F006880F002002F49091F086008465C
:10560000006880F0080008600846006880F40070B8
:1056100008600846006880F4807008604FF44870A5
:10562000244908803FE025480088401C2349088021
:10563000084600880B2801DD002008801F480088EC
:10564000082819DD1C48001F006880F400701A4902
:10565000091F08600846006880F48070086000E058
:105660001DE00846006880F00200086008460068F7
:1056700080F0080008600EE01048008807280ADA69
:105680004FF400700C49091D086002200860C00139
:1056900008600820086096200649088003E0012081
:1056A0000449887000BF00BF00BF52E72C000020F3
:1056B0007800002070000020100C014076000020CF
:1056C0002DE9F04F8DB0814692480078012802D034
:1056D0009148407E48B900208F498860C8608F4952
:1056E000086448640DB0BDE8F08F8C4A91688A4A1E
:1056F0009068FAF78DFD0990FAF77EFF0746884A11
:10570000884BFAF7A2FE05460E4684498868FAF7E8
:1057100073FF2A463346CDE90A01FAF7EFFD8246C8
:10572000FAF7AEFF7D4988600A46D1687A4AD068A8
:10573000FAF76EFD0990FAF75FFF794A794BCDE9E8
:105740000A01FAF782FE05460E467449C868FAF760
:1057500053FF07462A463346FAF7D0FD8246FAF74A
:105760008FFF6E49C8600869FAF746FF05460E4686
:105770006D48406880F0004B6C495846FAF74EFD82
:105780008246FAF739FFCDE9000102F0B9FD07467C
:105790000022674BFAF759FE2A463346CDE902014B
:1057A000FAF74DFE5E4A5F4BCDE90401FAF74DFE74
:1057B000CDE9080159490869FAF71EFFCDE906014C
:1057C000DDE90823FAF79AFDCDE90A01FAF758FF57
:1057D000524908614869FAF70FFF07468846524860
:1057E000006880F0004051490090FAF717FD0190E1
:1057F000FAF702FF054602F083FD00224C4BCDE98B
:105800000201FAF722FE82463A464346FAF717FEAD
:10581000434A444BCDE90401FAF717FECDE90801EC
:105820003E494869FAF7E8FECDE90601DDE90823BB
:10583000FAF764FDCDE90A01FAF722FF374948611A
:105840000A4611699068FAF7E3FC344908620A468F
:105850005169D068FAF7DCFC304948620A46916A1F
:10586000106AFAF7D5FC05464946FAF709FD2B49B7
:1058700088630846006A88620A46D16A506AFAF765
:10588000C7FC05464946FAF7FBFC2449C8630846AD
:10589000406AC8620A46116C906BFAF7B9FC06467A
:1058A0002449FAF7BBFC05461C48016C2846FAF768
:1058B0005DFC1A4908640A46516CD06BFAF7A8FCE3
:1058C00006461C49FAF7AAFC05461448416C2846CE
:1058D000FAF74CFC11494864174C08468465086A7D
:1058E0002146FAF79BFC0D498864486A2146FAF77D
:1058F00095FC0A49C864086C2146FAF78FFC0749F1
:105900000865486C2146FAF789FC0449486500BFE0
:10591000E8E60000E8000020680C00208C0C002065
:105920009A9999999999C93F14030020728A8E3CDB
:1059300000C08240CDCCCC3DAE4FDA3D2DE9F05FCA
:1059400004464FF07F594FF07C512046FAF766FC31
:10595000824625462E460C48A0EB6606354629466B
:105960005046FAF75BFC83462946FAF757FC804617
:105970004946FAF750FC07462946FAF74FFC054618
:105980002846BDE8F09F0000DF59375F0146002040
:10599000034A506820F440400843506070470000BC
:1059A0000010024029B1064A52690243044B5A6171
:1059B00004E0034A52698243014B5A617047000078
:1059C0000010024029B1064AD2690243044BDA6151
:1059D00004E0034AD2698243014BDA617047000058
:1059E0000010024029B1064A92690243044B9A61B1
:1059F00004E0034A92698243014B9A6170470000B8
:105A00000010024030B500210022002400232D4D5B
:105A10006D6805F00C0121B1042905D0082923D1B6
:105A200005E0294D056022E0274D05601FE0254D6A
:105A30006D6805F47012234D6D6805F480340225FD
:105A400005EB92421CB9214D554305600BE01D4DFD
:105A50006D6805F400351DB11C4D5543056002E02D
:105A6000194D5543056002E0174D056000BF00BFAA
:105A7000144D6D6805F0F0010909154D6B5C056862
:105A8000DD4045600F4D6D6805F4E061090A104D79
:105A90006B5C4568DD4085600A4D6D6805F46051BA
:105AA000C90A0B4D6B5C4568DD40C560054D6D68EE
:105AB00005F44041890B074D6B5CC568B5FBF3F5F8
:105AC000056130BD0010024000127A0000093D005F
:105AD0003F0000204F00002010B532480088012808
